:10000000B7C00000C5C00000C3C00000C1C00000F0
:10001000BFC00000BDC00000BBC00000B9C00000F0
:10002000B7C00000B5C00000B3C0000024C4000089
:10003000AFC00000ADC00000ABC00000A9C0000010
:10004000A7C00000A5C00000A3C00000A1C0000020
:100050009FC000009DC000009BC0000099C0000030
:1000600097C0000095C0000093C0000091C0000040
:100070008FC00000120353004E00450053003200B1
:10008000550053004200000010034E00450053008D
:10009000320055005300420000001E03450072006C
:1000A0006900630043006F006E006E00650072001F
:1000B0002E006E00650074000000040309040902AC
:1000C0002200010100C03209040000010300000009
:1000D000092111010001222E0007058103080005F6
:1000E00009022200010100C03209040000010300DE
:1000F0000000092111010001222E000705810308DB
:1001000000051201100100000008000000000100BD
:100110000102000105010904A1010901A100093042
:100120000931159C256435FF45019502750881024A
:100130000509190129081500250175019508810295
:10014000C0C005010904A1010901A100093009315C
:10015000159C256435FF4501950275088102050946
:100160001901290415002501750195088102C0C0F7
:1001700011241FBECFEFD2E0DEBFCDBF21E0A0E053
:10018000B1E001C01D92A131B207E1F71AD18DC5CE
:1001900037CF0895089542E061EC81E09EC2559802
:1001A0005D9A52985A98519A5998509A58984D99E0
:1001B00007C080E18093020181E0809303010895EC
:1001C00088E08093020110920301089584B7877F2D
:1001D00084BF88E10FB6F8948093600010926000AD
:1001E0000FBE90E080E80FB6F89480936100909382
:1001F00061000FBED4DF30C3589A589820E030E039
:1002000080E090E06091020170E02617370794F4D7
:1002100069B162FB442740F950E0022E02C0440F4E
:10022000551F0A94E2F7842B952B599A59982F5F02
:100230003F4FE8CF0895CF93DF93EC01DDDF1882C5
:1002400019821A8220910301211124C084FD02C069
:1002500024E603C085FD02C02CE9298386FD02C087
:100260002CE903C087FD02C024E6288380FD03C07B
:100270002A8121602A8381FD03C02A8122602A838A
:1002800083FD03C02A8124602A8382FD3DC02A8128
:10029000286039C02130C1F584FD02C024E603C0C6
:1002A00085FD02C02CE9298386FD02C02CE903C02C
:1002B00087FD02C024E6288390FD03C02A812160C7
:1002C0002A8380FD03C02A8122602A8383FD03C024
:1002D0002A8124602A8382FD03C02A8128602A8320
:1002E00091FD03C02A8120612A8381FD03C02A81F8
:1002F00020622A8393FD03C02A8120642A8392FD11
:1003000003C02A8120682A8341E0209100013091B6
:1003100001012817390709F440E090930101809307
:100320000001842FDF91CF910895CF93DF9300D008
:100330001F92CDB7DEB780910A018130B1F4809170
:100340000901813A91F4CE01019675DF8091E800B0
:10035000877F8093E80063E070E0CE010196F6D0DD
:100360008091E8008B778093E8000F900F900F90BA
:10037000DF91CF910895CF93DF9300D01F92CDB737
:10038000DEB7809108018430B1F481E08093E90008
:100390008091E80080FF0FC0CE0101964CDF40E065
:1003A00050E063E070E0CE01019688D08091E800D3
:1003B0008E778093E8000F900F900F90DF91CF9190
:1003C000089504DF7894D7DF54D4FDCF292F332745
:1003D00023303105E9F044F42130310509F44AC0F5
:1003E0002230310541F055C02132310579F12232F8
:1003F0003105A9F14EC080910301813009F43FC05D
:10040000882309F441C082E290E020E030E052C04D
:1004100099278130910541F08230910541F0892B77
:10042000C1F5EAEBF0E00EC0EAE9F0E00BC0809124
:100430000301813019F4E4E7F0E004C0811129C020
:10044000E8E8F0E0849190E09F0134C080910301DE
:10045000813011F1882329F189E090E0D6CF809195
:100460000301813019F1811114C08EE290E022E481
:1004700031E020C082E190E022E031E01BC082E266
:1004800090E02EEB30E016C082E290E020EE30E00B
:1004900011C080E090E0B9CF89E090E020ED30E03D
:1004A00009C089E090E022EF30E004C08EE290E0E5
:1004B00024E131E0FA01318320830895CF92DF9265
:1004C000EF92FF920F931F93CF93DF937C018B01E9
:1004D000EA0159D1811131C0209731F08881998189
:1004E000081B190BE80EF91EC12CD12C01151105A2
:1004F00019F18091E80085FD14C08091E8008E77A5
:100500008093E800B6D3209741F0888199818C0DC3
:100510009D1D9983888385E010C035D1882331F3F0
:100520000CC0F70181917F018093F1000150110906
:10053000FFEFCF1ADF0ADACF80E0DF91CF911F9172
:100540000F91FF90EF90DF90CF90089520910F01D1
:10055000309110012617370748F06115710539F4FD
:100560002091E8002E772093E80001C0B90120E037
:1005700061157105D1F130910801332309F443C0AD
:10058000353009F442C03091E80033FD40C030916D
:10059000E80032FF06C08091E80082FF29C080E0B9
:1005A00008953091E80030FFE3CF2091F20030E071
:1005B000FC01281B390BCF01820F931F61157105B8
:1005C00049F08830910530F481918093F1006150B9
:1005D0007109F1CF21E0089709F020E08091E8004F
:1005E0008E778093E800CF01C3CF2111C4CFD3CF42
:1005F00080910801882339F0853039F08091E80036
:1006000083FFC9CF04C082E0089583E0089581E0AC
:10061000089520910F01309110012617370748F0F7
:100620006115710539F42091E8002E772093E800D8
:1006300001C0B90120E061157105D9F130910801BF
:10064000332309F444C0353009F443C03091E80045
:1006500033FD41C03091E80032FF06C08091E800D0
:1006600082FF2AC080E008953091E80030FFE3CF98
:100670002091F20030E0FC01281B390BC9018E0FDC
:100680009F1F6115710551F08830910538F48491F0
:100690008093F100319661507109F0CF21E0089705
:1006A00009F020E08091E8008E778093E800CF0188
:1006B000C2CF2111C3CFD2CF80910801882339F056
:1006C000853039F08091E80083FFC8CF04C082E014
:1006D000089583E0089581E00895982F953058F5A6
:1006E0009093E900981739F07091EC002091ED009B
:1006F0005091F00003C0242F762F50E021FF19C045
:100700003091EB003E7F3093EB003091ED003D7F68
:100710003093ED003091EB0031603093EB0070933B
:10072000EC002093ED005093F0002091EE0027FFA5
:1007300007C09F5FD3CF8F708093E90081E0089559
:1007400080E008958091090187FD05C08091E8004F
:1007500080FF0EC012C08091E80082FD05C080912C
:1007600008018111F8CF08958091E8008B7708C0C7
:10077000809108018111EACF08958091E8008E7779
:100780008093E80008958091E4009091E50045E6AB
:100790002091EC0020FF21C02091E80020FD21C025
:1007A00020910801222389F0253089F02091EB0067
:1007B00025FD0FC02091E4003091E500281739078E
:1007C00039F3415041F0C901E3CF82E0089583E05D
:1007D000089581E0089584E008952091E80022FFC3
:1007E000DFCF80E0089541D043D08091D8008F774B
:1007F0008093D8008091D80080688093D800809141
:10080000D8008F7D8093D80084E089BD86E089BDC3
:1008100009B400FEFDCF109208011092040110925D
:1008200006011092050142E060E080E056DF809111
:10083000E1008E7F8093E1008091E20081608093EF
:10084000E2008091E20088608093E2008091E00005
:100850008E7F8093E0000895E3E6F0E080818E7F54
:10086000808381E080930701BECF1092E20008955B
:100870001092E10008951F920F920FB60F9211246B
:100880002F933F934F935F936F937F938F939F9398
:10089000AF93BF93EF93FF938091E10082FF0AC073
:1008A0008091E20082FF06C08091E1008B7F8093FF
:1008B000E100DED18091E10080FF17C08091E2006D
:1008C00080FF13C08091E2008E7F8093E2008091D0
:1008D000E20080618093E2008091D8008062809382
:1008E000D80019BC1092080155DC8091E10084FF0A
:1008F0002FC08091E20084FF2BC084E089BD86E098
:1009000089BD09B400FEFDCF8091D8008F7D809312
:10091000D8008091E1008F7E8093E1008091E20019
:100920008F7E8093E2008091E20081608093E200FC
:1009300080910401882311F084E007C08091E300D6
:1009400087FF02C083E001C081E08093080121DCC1
:100950008091E10083FF22C08091E20083FF1EC0EE
:100960008091E100877F8093E10082E0809308011D
:10097000109204018091E1008E7F8093E1008091CC
:10098000E2008E7F8093E2008091E200806180939C
:10099000E20042E060E080E0A0DE6AD1FF91EF91EA
:1009A000BF91AF919F918F917F916F915F914F9187
:1009B0003F912F910F900FBE0F901F9018951F938E
:1009C000CF93DF93CDB7DEB7AA970FB6F894DEBF0B
:1009D0000FBECDBFE9E0F1E08091F100819321E00D
:1009E000E131F207C9F7A1DC8091E80083FF28C15B
:1009F0009091090180910A01853009F481C030F499
:100A00008130A9F168F0833091F11AC1883009F47E
:100A1000ECC0893009F4F8C0863009F011C192C0E9
:100A2000903821F0923809F00BC108C0809105017F
:100A300090910601992389F082600FC080910D0189
:100A40008F70853008F0FCC08093E9008091EB0046
:100A500085FB882780F91092E9009091E800977F44
:100A60009093E8008093F1001092F100C9C0292F03
:100A70002D7F09F0E5C0992319F0923061F0E0C0B4
:100A800090910B01913009F0DBC0833009F090E0C8
:100A9000909306012CC090910B01911128C02091D8
:100AA0000D012F709FEF920F943008F0C9C0209372
:100AB000E9009091EB0090FF1AC0833021F48091FF
:100AC000EB00806212C08091EB0080618093EB00AC
:100AD00081E090E001C0880F2A95EAF78093EA0050
:100AE0001092EA008091EB0088608093EB001092F6
:100AF000E9008091E800877F8093E80023DEA0C0B2
:100B000091119EC010910B011F778091E3008078B6
:100B1000812B8093E3008091E800877F8093E80039
:100B200011DE8091E80080FFFCCF8091E3008068B7
:100B30008093E300112311F083E001C082E08093F1
:100B400008017EC09058923008F07AC080910B0165
:100B500090910C018C3D23E0920771F583E08A832C
:100B60008AE289834FB7F894DE01139620E03EE0D5
:100B700051E2E32FF0E050935700E49120FF03C0CF
:100B8000E295EF703F5FEF708E2F90E0EA3010F04B
:100B9000C79601C0C0968D939D932F5F243149F76E
:100BA0004FBF8091E800877F8093E8006AE270E0A1
:100BB000CE010196CBDC13C060910D0170910E0146
:100BC000AE014F5F5F4F02DC0097D1F12091E8004A
:100BD000277F2093E800BC0189819A811ADD8091EA
:100BE000E8008B778093E8002BC0903849F580911E
:100BF000E800877F8093E800809104018093F100F2
:100C00008091E8008E7778CF91111AC090910B01F6
:100C10009230B0F48091E800877F8093E800909351
:100C2000040190DD80910401811104C08091E300F2
:100C300087FF02C084E001C081E080930801ABDA45
:100C40008091E80083FF0AC08091E800877F80934D
:100C5000E8008091EB0080628093EB00AA960FB6CB
:100C6000F894DEBF0FBECDBFDF91CF911F910895E5
:100C70000895CF93809108018823A9F08091E9001D
:100C80008F709091EC0090FF02C090E801C090E05E
:100C9000C92FC82B1092E9008091E80083FD8FDEF8
:0E0CA000CF70C093E900CF910895F894FFCF74
:00000001FF
